:020000040800F2
:10000000E83400209D010008D761000897560008D9
:10001000D5610008753600083D8A00080000000020
:100020000000000000000000000000004163000824
:100030002D370008000000008F620008C567000827
:10004000B7010008B7010008B7010008B7010008B0
:10005000B7010008B7010008B7010008B7010008A0
:10006000B7010008B7010008B7010008B701000890
:10007000B7010008B7010008B7010008B701000880
:10008000B7010008B7010008B7010008B701000870
:10009000B7010008B7010008B7010008B701000860
:1000A000B7010008B7010008B7010008B701000850
:1000B000B7010008B7010008B7010008B701000840
:1000C000B7010008B7010008B7010008B701000830
:1000D000B7010008B701000885720008B7010008E1
:1000E000B7010008B7010008B7010008B701000810
:1000F000B7010008B7010008B7010008B701000800
:10010000B7010008B7010008B7010008B7010008EF
:10011000B7010008B7010008E1680008B70100084E
:10012000B7010008B7010008B7010008B7010008CF
:10013000B7010008B7010008B7010008B7010008BF
:10014000B7010008B7010008B7010008F96100080D
:10015000B7010008B7010008B7010008B70100089F
:10016000B7010008B7010008B7010008B70100088F
:10017000B7010008B7010008B7010008000000003F
:10018000B7010008B7010008DFF80CD003F072F8DF
:100190000048004729C10008E8340020064880478D
:1001A00006480047FEE7FEE7FEE7FEE7FEE7FEE75C
:1001B000FEE7FEE7FEE7FEE78D680008890100081C
:1001C00010B5F949C4074FF040434FF0804205D0C5
:1001D0008B66CB66C1E91C328A67CA67840709D57A
:1001E000C1F80031C1F80431C1E94232C1F810212F
:1001F000C1F81421400709D5C1F89831C1F89C31E4
:10020000C1E96832C1F8A821C1F8AC2110BD2DE9BF
:10021000F14F82B0002102988A468946806F0028FB
:100220007DD000220020401C0428FCDB02984FF007
:10023000000C00EBC203D3E90010A1FB0167D3E976
:10024000065400FB017701FB0077CDE90067A64665
:10025000AE1B64EB0704AB460327A6FB075804FB61
:10026000078406FB0C44DDE90067AD197C41A5FB62
:10027000016704FB017405FB0045D3E90C47341BFF
:1002800065EB0705CDE900455D46A5FB0567032441
:10029000A6FB04580EFB0B770BFB0E7707FB0484C1
:1002A00006FB0C44D3E91263761B63EB04034C1882
:1002B000A4FB017C40EB000505FB01C504FB0055D8
:1002C000A7FB014C05FB01C507FB0055A4FB017C06
:1002D00005FB01C504FB0054F6196341DDE9004547
:1002E000AD0045EA9475A400A4FB017C05FB01C1A7
:1002F00004FB0014F01B73EB040103D50023404200
:1003000063EB0101BAEB000479EB010301DA8246E9
:100310008946521C032A85DB5046494600E010E01E
:1003200002F029FDA149896B02F02EFB02F070FD5D
:100330009D4AD2F80C2203B09200BDE8F04F02F0C3
:100340007EB9002003B00146BDE8F08F2DE9F14FE2
:100350000020009A0146926FF2B300240022521C42
:10036000042AFCDB009A02EBC405AA46D5E9002961
:10037000A2FB023CD5E906769E46FB1A0325A3FBA9
:10038000057809FB02CC02FB09CB66EB0B0606FBEA
:1003900005854FF0000C03FB0C5617EB0E03A3FB77
:1003A000027C46EB0B0606FB02C203FB0923DAE9DB
:1003B0000C25BA1AAB4103D50025524265EB030365
:1003C000851A71EB030501DA10461946641C032CEB
:1003D000C4DB02F0D0FC00E00EE07449896B02F04F
:1003E000D3FA02F015FD704AD2F80C22BDE8F84F9E
:1003F00002EB420202F023B900200146BDE8F88F6B
:100400002DE9FE43684D80460024D5F810626F4602
:1004100005EBC4013246D1E9020102F001F905EB16
:100420008401B1F884100904401847F8240004F14D
:100430000104032CECDB5C489821083002F038F909
:100440000120FFF7BDFE95F8E8010199042807D1C6
:10045000D5F81802B0F5201F02DD052085F8E80167
:10046000524C0098636AC11A01D40E4600E01E1A6D
:100470000198A26A801A01D4074601E0019FD71BA8
:10048000BE4206DD002901D4084606E00098181A8D
:1004900003E0002801D50198101A029AE16A521A65
:1004A00001D4134601E0029BCB1A834205DB002AEC
:1004B00001D4104601E00298081AD8F824100BF075
:1004C0006FF9D5F81812814206DD032168460BF05A
:1004D0001DFD02200BF070FD009860620198A06283
:1004E0000298E062BDE8FE83304AC2E9020170472B
:1004F0002E4AC2E9060170472C4AC2E9040170473E
:10050000294AD2F8E0310360D2E97402C1E900025D
:100510007047254AD2F8E0310360D2E97602C1E99A
:10052000000270472DE9FE4781460020EA468A6FA7
:1005300022B901EB800339F91020DA6701EB800260
:1005400039F91030D46F1D1B4AF82050136E9D42AC
:1005500000DD1566D36E9D4200DAD56601230024C6
:1005600022464FEAE578A3FB056704FB057403FB0D
:100570000844334602EB420601EBC60606EBC00C0C
:10058000DCE90076FF186641CCE90076521C042AAB
:10059000E9DB401C0328CADB886F401C8867012008
:1005A000C1F89000BDE8FE872822002088240020A2
:1005B00030B5002302EB830550F823405B1CEC664A
:1005C000032BF7DBC2F88810916F79B1002102EBA1
:1005D000810450F82130E56F5B1B00D55B42256E2E
:1005E0009D4200DA2366491C0329F0DB906F401C12
:1005F00090670120C2F8900030BD10B500210B4675
:1006000000EB8102491CD46ED46713660329F7DB23
:10061000D0F8881040F8783FC0E9051310BDD0E944
:100620002210081A70470146D1E91802824200DB05
:100630001046896E814200DB084670472DE9F0477D
:100640008046501E012686408946C2F1200740465A
:1006500001F0F5FF04460D46404649463A4601F092
:10066000DFFF3A4601F0EBFFB04203DD641C45F1C9
:10067000000505E07142884202DA641E45F1FF354B
:1006800020462946BDE8F087F74900200862486205
:100690008862C862086448648864C8640863486300
:1006A0008863C863086548658865C865704730B564
:1006B000EE4AD2F8483223B1D2E990542D1A8C4137
:1006C00001DAC2E990015B1CC2F8483230BD30B596
:1006D000E64AD2F8583223B1D2E994542D1A8C410B
:1006E00001DAC2E994015B1CC2F8583230BD30B562
:1006F000DE4AD2F828322BB1D2E98845041B71EBCF
:10070000050401DAC2E988015B1CC2F8283230BD59
:1007100030B5D64AD2F838322BB1D2E98C45041B19
:1007200071EB050401DAC2E98C015B1CC2F83832B6
:1007300030BD2DE9F0470246CC48012508308046FF
:10074000C36E016E046FC91A436E1B1B8B4200DB24
:100750001946836ED8F87400181A884200DB0146E7
:10076000C14F6037F86B884204DA002400F00AFABF
:10077000204687E7108E0124BC4EC0054FF00001D3
:100780000ED5D6F880303068834209DBB2F8742089
:10079000D20506D5D6F8B021824201DB052400E05F
:1007A0000C4674B3600719D5AF48C8388146FFF7C7
:1007B0002EFD000D40EA01300915C6E97601D7E9A2
:1007C00004321B1A8A4102DA0025FFF7A1FF9821A3
:1007D000484601F06DFF0420FFF7F2FCE0070ED061
:1007E0004046FFF714FDC6E97C01D7E9063402460E
:1007F000181A8C4103DA00251046FFF778FF2846C7
:1008000040E7FFE702203DE71EB5044690F83000C0
:10081000C0F38110032804D19449201D0831FFF74B
:1008200081FE94F87400C0F38110032805D18E492D
:1008300004F14800C839FFF775FED4F8B8008B4AB8
:10084000C0F38113A0326946032B0FD0C0F34110CF
:1008500003281AD1002004EB8003D3F8A0309B13A7
:1008600041F82030401C0328F5DB09E0002004EBB0
:100870004003B3F98C3041F82030401C0328F6DBEC
:100880006846D4F8C010FFF793FE1EBD2DE9F0476F
:1008900005460020296BCA0567D501F050014029A3
:1008A00000D1012095F8741001F05001402900D1C9
:1008B000012095F8B8106D4C01F05001402900D08E
:1008C00030B100F05FF90020C4F8E00184F8E801DD
:1008D000654ED4F80812E86A6036814225D0C4F823
:1008E00008020A28306B0ADA40002060716B491C4C
:1008F000C4F80C1202F031FA0CF088FB04E020601E
:10090000706BC4F80C02B06BC4F81402D4F80C027B
:10091000C0F11000C4F810024FF48040C4F818026F
:1009200096F8341019208840F0632846FFF76CFFD2
:1009300094F8E811DFF8349105274FF0020809F127
:10094000A009072911D2DFE801F0041127305E7EEB
:100950008500D4F8E001411CC4F8E0110A2804DB4A
:1009600000F010F9012084F8E80186E0D4F898003E
:10097000012810D12846FFF7DCFE10B1012803D072
:1009800004E084F8E87101E084F8E8814846FFF764
:1009900034FEFFF779FE70E0032084F8E801284672
:1009A000FFF72EFD00F0EEF867E02846FFF7C1FEE6
:1009B000F0B3012861D1B5F8B8004FF00403C005C9
:1009C00015D54846FFF72FFE0146C017C4E974103D
:1009D000D6E902C2BCEB0101824102DA84F8E87177
:1009E00008E04846FFF71BFE316A884202D384F8CC
:1009F000E83124E0F4E97601FFF769FED4E9060165
:100A0000FFF755FE39E0B5F8B800C0050BD54846EC
:100A1000FFF709FE0146C017C4E97410D6E9023297
:100A2000591A824108DB2846FFF783FE00B100E037
:100A300002E0012803D020E084F8E8711DE0284698
:100A4000FFF7DEFCD6E7062084F8E80101200BF072
:100A5000B3FA0DE02846FFF76CFE012801D038B14B
:100A60000BE084F8E88108E02824002028220020F8
:100A700000F088F84846FFF7C0FD002002E610B5F8
:100A800000214010002802D001F10101F9DC454CA1
:100A90004FF0010001F1010100FA01F0C4E90C017D
:100AA00002F05BF90CF0B2FAA06394F8341019204C
:100AB0008840E06310BD10B54FF418713A4801F05A
:100AC000F7FD4021374801F0F3FD0720FFF778FBE1
:100AD000344840F2DC510022C0E906121421C0E97A
:100AE00002124FF41671C0E9041230492E4C016213
:100AF0000120C4F8E4011920FFF7C1FF0020C4F869
:100B0000080210BD10B54FF41871274801F0D0FD50
:100B10000720FFF755FB244801210022C0F8E4110B
:100B200080F8E811032101200BF03CFA0722642130
:100B3000AFF2A720BDE810400BF078B810B5012047
:100B40000BF03AFAAFF2BB20BDE810400BF098BAB8
:100B500010B5FFF7B0FF002805D1AFF25700BDE890
:100B600010400BF0F1B810BD10B5FFF7E7FFAFF282
:100B70006B00BDE810400BF0B1BA0B49D1E97C0124
:100B800070477047084810B59821083001F090FD73
:100B90009821074801F08CFDBDE810400520FFF7C3
:100BA0000FBB000088240020282200200008AF2F5F
:100BB000602300202DE9FC5F0D460026416B99461D
:100BC0009246B046002904DBD0F8BC00032800D1CF
:100BD0000126FF492422081F01F043FDFC4FC03FBE
:100BE0000024C7F8E05007EB8400D0F8BC10404662
:100BF00001F040FE641C80460A2CF4DBF54901F04C
:100C0000C3FEF54C80464FF0C80BC7F8E400BAF1BC
:100C1000320F21DB4846C7F81CB102F09EF8009065
:100C20000190EE49284601F0AFFE019901F07AFEED
:100C3000214601F0A9FE0446BAF57A7F33DBE84984
:100C40002846009C01F0A0FE214601F06BFEE2491F
:100C500001F09AFE044626E041F2883199FBF1F05A
:100C60004042D7F81C1100EB80004018C7F81C0167
:100C700002D50020C7F81C01484602F06EF88246F3
:100C8000D849284601F080FE514601F04BFE21462E
:100C900001F07AFE0446D7F81C0120B9D7F82801E4
:100CA000012800D10024D7F8200100B12C46CE49FC
:100CB000894500D12C4614F0FF4F11D04046C7F8AB
:100CC000E880414601F028FE20F00040C74902F0CC
:100CD00061F922D2D7F8B80010F0FF4F03D01CE022
:100CE000D7F8E800EDE7C6B14846C7F81CB102F0F6
:100CF00058F804460E46284602F0E3F80022BC4BA2
:100D000001F0A5FF2246334601F02FFF0022B94B28
:100D100001F09DFF02F018F904462046BDE8FC9F53
:100D20002DE9F04FABB04FF0000AA94FCDF810A05D
:100D3000C03FCDF814A0CDF818A00446D7F8201174
:100D4000022003297DD0002620AD07EB8600D0F8D5
:100D5000A80002F002F86FF01D0101F053FE45F803
:100D60002600761C042EF0DB0FA80AF019FA24A83E
:100D70000AF064FA964B24AA183B0FA92046279341
:100D800000F0F4F9064604F118000AF0BDFA8209F1
:100D90009548D7F83031834200DB03463146204680
:100DA000FFF708FFBB4607F1B806D7F8EC1001F0D3
:100DB000B9FD30600BA80AF0F3F913A90BA80AF0EB
:100DC000C8FE83480FAA3C300BA906460AF044FD32
:100DD00031460BA80AF01DFD00210DF13C080DF174
:100DE0004C090DF1100E00221346104601EB410C88
:100DF0000CEB000759F8276008EB8007401C7F6860
:100E00000328C6FB0723F3DB900F40EA83004EF86C
:100E10002100491C0329E6DBDBF820015F4600289E
:100E20007DD05046CDF818A0404201F096FF6FF0FB
:100E30001D09494601F0E6FD09F062FFD04656461D
:100E400000E074E0CDE9000A0698CDF808A0404221
:100E500001F083FF494601F0D5FD0CF098F80390AE
:100E6000D7F8300141F2883190FBF1F04FF0804A21
:100E700001F073FF28902990069801F06EFFDFF8CB
:100E800078B1594601F080FD299901F07DFD514668
:100E900001F07AFD01F0A3FF40000690DDF8A0A06C
:100EA00001F05BFF594601F03DFD514601F03AFD6E
:100EB00001F095FF069001F050FF494601F0A2FDB8
:100EC00009F01EFFCDE907060996069801F045FFD7
:100ED000494601F097FD0CF05AF80A901CAA6946A1
:100EE00020A80AF011FD6A4607A91CA80AF00CFD0B
:100EF000D4F8BC00EA46002810DD00261E215AF86E
:100F0000260045F8260001F07DFD01F068FF07EBA3
:100F10008601761CC1F8A800042EEFDB00E00BE090
:100F2000D4F8BC004FF0FF3503280AD106E0C7F81B
:100F300020012BB0BDE8F08F069875E701F007FBA4
:100F4000F0B357F8A80F01F008FF4E46494601F0EC
:100F500059FD1C90786801F000FF314601F052FD08
:100F60001D90B86801F0F9FE314601F04BFD1E906E
:100F7000F86801F0F2FE314601F044FD1F90B86FB1
:100F8000A83F0028D5D0D7F8B8002946A83701F0E7
:100F900039FD09F0B5FE1E2101F034FD01F01FFFFF
:100FA000C7E90008C7F808802946386901F02AFD1A
:100FB0000BF0EDFF1E2101F025FD01F010FF00E018
:100FC0001CE0F860D4F8C010A83F279844E0000067
:100FD000882500200000204100409C450000484337
:100FE000000048420000C84340420F000E2DB23DB1
:100FF000000079400088B340E10237472946D7F81E
:10100000B80001F0FFFC09F07BFECDE90708CDF840
:1010100024802946D7F8B80001F0F4FC0BF0B7FFA4
:101020000A906A4607A920A80AF06EFC68460AF0F2
:1010300017FD002556461E2156F8250001F0E2FC5A
:1010400001F0CDFE07EB85016D1CC1F8A800042D51
:10105000F1DBD4F8C01027980AF0F6FED7F820018B
:1010600000288FD0401E62E770B590F8B810664A2D
:10107000CC064FF000034FF0030101D4C2E948133E
:10108000B0F82041E40509D4048EE40503D5B0F896
:101090007440E40502D4C2E948131AE0D2F83411CE
:1010A00039B1D0E93013C91A4FF47A73B1FBF3F1B7
:1010B00005E0D0F8B01044F62064A14202DBC2F88B
:1010C00030110AE0D2F82C512944C2F82C11A14267
:1010D00001DA002070BDC2E94B31FFF721FEF8E7CD
:1010E00010B54FF49C71484801F0E2FA464C4FF0BD
:1010F00080400021C4F8FC0044F8A80F4248A83002
:101100000AF0A2FE4FF47A7060674FF07E50606480
:1011100010BD3D49C1F8EC00002070473A49C1F8C4
:101120002801002070473849C1F834010020704779
:1011300004224FF41671AFF2CF000AF077BDAFF280
:10114000D7000AF09DBF10B5FFF7CAFF2E49002057
:10115000C1F82801C1F83401AFF22B00BDE81040FE
:101160000AF0F2BDAFF237000AF0B8BF2DE9FF4731
:101170000C4625491546074699463C220C31224823
:1011800001F06FFA204950225831A1F1100001F00E
:1011900068FA1D4E95E8070006F13C031B4D83E8F5
:1011A00007001ECC06F1980080E81E00D6F8240146
:1011B000401CC6F82401062802DD0620C6F82401DA
:1011C000C0F1060407F1A00818E006EB04116A4616
:1011D000484648310AF040FB04EB440006EB80012E
:1011E0006A46404609F05EFE074625F0004120F0C1
:1011F000004001F0C5FE00D23D46641C062CE4DB35
:1012000004B02846BDE8F087C824002000247449B3
:101210001FB501461022684601F023FAF6489DE802
:101220000E0080E80E00F5499DF80C0081F8B00131
:10123000002004B010BD1FB5EF490EC98DE80E00A7
:10124000EE49102291F8B0118DF80C10694601F0AA
:1012500008FA0020EDE72DE9F04F91B000251821A4
:10126000684601F025FA0024182106A801F020FAAA
:10127000E249A046C14691F8C00101287ED1D1F8CB
:10128000B8B1D1F8B4A10022C2EBC20000EB40011A
:10129000DA4800EB810E9EF850000F90002863D0D2
:1012A00000215EE05EF82130DDE900676D1CD81793
:1012B0000E939B197841CDE900300EEB8100EDB221
:1012C00043690D93DDE9027CDE17DB1946EB0C0662
:1012D000CDE90236836ADDE9047CDE170C93DB1965
:1012E00046EB0C06CDE90436C06B0E9BDDE9067CAF
:1012F00083FB0063360C46EA0346F6194CEB2343A6
:10130000CDE906630D9BDDE9087C83FB00634FEAB2
:10131000164646EA0346F6194CEB2343CDE908632B
:101320000C9BDDE90A7C83FB00634FEA164646EA24
:101330000346F6194CEB2343CDE90A6380FB0063B7
:101340004FEA164646EA034616EB080849EB2349DE
:101350000444584501DA834602E0504500DD8246E8
:10136000491C0F9888429DDC521C052A8CDBA3483F
:10137000AAEB0B01D0F8BC01814200E053E052DB44
:10138000A5FB0872E01700260F9006FB082005FB5E
:1013900009000E9084FB0410090C41EA004100147E
:1013A000CDE90C0106A800EBC601D1E90002A0FBC3
:1013B00005BC02FB05C2002100FB012C684600EBC6
:1013C000C601D1E90002A0FB043802FB04820F9998
:1013D00000FB0120190C0CAA41EA00494FEA204AFF
:1013E00092E80B0087EA010283EA000852EA080249
:1013F00012D07A1A63EB0003BBEB09006CEB0A0C0A
:101400004FEA0C4141EA1041000401F0D8F87B4951
:1014100001EB8601C1F8A401761C032EC2DB7748DC
:10142000012180F8B01111B00020BDE8F08FF8B5AF
:10143000724D0E460446D5E96D01091A052291FB4D
:10144000F2F1301A90FBF1F0C0B28DF800000428E0
:1014500001D92020F8BDC0EBC00000EB400005EB37
:10146000800191F85000052816D0421C81F85020C8
:101470009DF80010C1EBC10101EB410105EB8102B8
:1014800002EB8001CE63236842F820306068486137
:10149000A06888620020F8BD01F14003181F1022E7
:1014A000194601F0DEF89DF800001022C0EBC000E4
:1014B00000EB400005EB8000011D01F0D2F89DF823
:1014C00000001022C0EBC00000EB400005EB8000E4
:1014D00000F11801143001F0C4F89DF8000010224A
:1014E000C0EBC00000EB400005EB800000F12C01D8
:1014F000283001F0B6F80420BAE730B585B00446CC
:1015000003A9684609F0D4FE04A809F067FF022881
:101510002BD0D4F8E4000399401A384991F8B0214F
:1015200012B308B3D1F8A421009C80FB0232150449
:1015300045EA134222440092D1F8A821019C80FB85
:101540000232150445EA134222440192D1F8AC114B
:10155000029A80FB0110030443EA114010440290F8
:10156000032168460AF0D2FC0CE0606B032809D125
:1015700009F0B4FE30B168460399FFF758FF08B987
:10158000FFF769FE05B0002030BD10B54FF4E271E1
:101590001A4801F08DF819481949C0F8B4114FF4F0
:1015A000AA01C0F8B8114FF4A021C0F8BC11012164
:1015B00080F8C011002010BD1049C1F8B80100200A
:1015C00070470E49C1F8B401002070470B49C1F8BB
:1015D000BC010020704758B10849D1F8A42102602D
:1015E000D1F8A8214260D1F8AC1181600020704789
:1015F0000520704724207047A427002000260020E3
:101600000000D8FF20B12D4981F8C00100207047AB
:1016100024207047294B93F8B101002818D0D3E952
:101620006D10401A052190FBF1F00020C0EBC001C5
:1016300001EB410103EB810191F8502022B100211F
:1016400000E0491C8A42FCDC401C0528EEDB00203F
:101650007047082296211A480AF0E8BA18480AF09A
:101660000FBD10B5FFF791FF4FF49A731022154983
:1016700015480AF033FB20B9AFF229000AF064FBE9
:1016800008B1012010BD0D49012081F8B1010020F1
:1016900010BD10B5094C94F8B101002808D00848D5
:1016A0000AF0EEFCAFF255000AF018FD08B1012077
:1016B00010BD002084F8B10110BD000000260020FC
:1016C000FB14000837120008111200082DE9F0433E
:1016D000044699B01D4691460E46806801F03DFBD8
:1016E000014601F01FF98046606801F036FB0146B3
:1016F00001F018F90746206801F02FFB014601F0C0
:1017000011F9394601F0B6F8414601F0B3F80BF093
:101710007DFC074620F000404FF08D4101F03AFC7F
:101720007ED2306801F019FB6FF01D08414601F0D0
:1017300069F90490706801F010FB414601F062F90C
:101740000590B06801F009FB414601F05BF9069095
:10175000F06801F002FB414601F054F900260C96B6
:101760000790206801F0F9FA394601F00DF90D9063
:10177000606801F0F2FA394601F006F90E90A068AF
:1017800001F0EBFA394601F0FFF80F9010AA0CA90E
:1017900004A80AF0B9F814A904A80AF046F86A46A1
:1017A00014A910A80AF0B0F80199084601F0BAF897
:1017B00002990446084601F0B5F8214601F05AF8AE
:1017C000FE49884201DAFE4C0BE0FE49884201DA0C
:1017D000FD4C06E0FD49884202DA4FF07A5400E001
:1017E000FB4C484601F0B9FAFA4901F0CDF8214620
:1017F00001F098F8044608962146029801F092F804
:1018000009900198214680F0004001F08BF8CDE965
:101810000A066A4604A908A80AF076F86A4600E0B3
:1018200025E004A9104609F0D3FF68460AF0D6F86F
:101830001E21009801F0E6F801F0D1FA28601E217F
:10184000019801F0DFF801F0CAFA68601E210298E1
:1018500001F0D8F801F0C3FAA8601E21039801F046
:10186000D1F801F0BCFAE86019B0BDE8F08396E861
:101870000F0085E80F00F7E72DE9F05F05460C46FD
:10188000806801F06AFA014601F04CF80746686882
:1018900001F063FA014601F045F80646286801F0B8
:1018A0005CFA014601F03EF8314600F0E3FF3946AC
:1018B00000F0E0FF0BF0AAFB4FF07E590027064630
:1018C0004FF08048484505DCC4E90087A760E76021
:1018D000BDE8F09FA86801F040FA314601F054F8E5
:1018E00082460146484601F017F84FF40006B04220
:1018F00000DA00204FF0FF3101F084F80BF086FB96
:1019000083464946504600F0B5FFB04200DA002059
:101910004FF0FF3101F076F80BF078FB82466868F3
:1019200001F01BFA014600F0FDFF0646286801F0B1
:1019300014FA014600F0F6FF314600F09BFF0BF071
:1019400065FB06464845BFDD1E21504601F05AF8AA
:1019500001F045FA2060686801F0FFF9314601F0B6
:1019600013F8594600F0DEFF1E2101F04BF801F09C
:1019700036FA6060286801F0F0F9314601F004F8A9
:10198000594600F0CFFF944900F0CCFF01F027FA50
:10199000C4E902079CE72DE9F04105460C46C06802
:1019A00001F0DBF9014600F0BDFF8046A86801F0B8
:1019B000D4F9014600F0B6FF0746686801F0CDF99A
:1019C000014600F0AFFF0646286801F0C6F901465F
:1019D00000F0A8FF314600F04DFF394600F04AFF05
:1019E000414600F047FFB0F5000F06DA4FF08040A7
:1019F000206000206060A0602DE00BF007FB014636
:101A00004FF07E5000F0C0FF1E2100F0FBFF0646A5
:101A1000286801F0A2F9314600F084FF01F0DFF9F7
:101A20002060686801F099F9314600F07BFF01F011
:101A3000D6F96060A86801F090F9314600F072FFB5
:101A400001F0CDF9A060E86801F087F9314600F0B7
:101A500069FF01F0C4F9E060BDE8F08170B50446AB
:101A600090F8300088B0400676D5A069002801DBE8
:101A7000014600E041424FF480320026574D91422A
:101A80000BDAE169002900DA4942914205DA216A5C
:101A9000002900DA4942914260DB002800DA404226
:101AA0004FF4C80188420BDCE069002800DA4042AC
:101AB000884205DC206A002800DA4042884201DDC5
:101AC000032000E00220A863696BA06A814219D05C
:101AD0006863A06A01F041F9414900F055FF1D21FA
:101AE00000F090FF01F0EDF93E4A3F4B01F03DF868
:101AF000082201F01BF900223C4B01F0A8F801F08C
:101B0000A8F928630496296BA06909F049FE05909D
:101B1000296BE06909F044FE0690296B206A09F000
:101B20003FFE07906A4604A92C4809F095FE0098EC
:101B30002A4A80010090019869468001019002982C
:101B400080010290039880010390104609F02EFE58
:101B500022490846FFF71FFF08B070BDAE63FBE7E0
:101B60002DE9F0430446D0F820018FB041067CD522
:101B70001A4DD4F810111E4B2A68891AD4F82C215A
:101B80005A438A4201DA032100E00221A963810558
:101B900004F58870804601D51049D4E0002104A8DE
:101BA00009F086FB0D490C223C3104A800F092FD9F
:101BB00008BBD4F82801A96D88421BE017B751393A
:101BC000A69BC43B0AD7233C8FC2753DCDCC4C3E6F
:101BD000CDCCCC3E0014CD47000080CEC4270020E1
:101BE00000247449112D4454FB21094000806640B3
:101BF00071981C007ED0208807AB80B204AA616A6D
:101C000009F0A6F9099801F0A8F8014600F08AFE4B
:101C10000746089801F0A1F8014600F083FE064649
:101C2000079801F09AF8014600F07CFE314600F07A
:101C300021FE394600F01EFE0BF0E8F90646E849A1
:101C400000F070FEE74900F09FFE6FF00F0100F01A
:101C5000D9FE0746D4F8280101F07FF8394600F094
:101C600061FEE14900F090FE00E06EE04FF0FF31D0
:101C700000F0C8FE074609F043F8814638460BF0ED
:101C800086F907464FF08040864204DAA8640020B7
:101C9000E864286533E01E21484600F0B3FE01F0F9
:101CA0009EF8A864079801F058F88146CF49384655
:101CB00000F038FE0746494600F034FE314600F099
:101CC00063FE01F08CF8E864089801F046F80146DC
:101CD000384600F027FE314600F056FE01F07FF84E
:101CE0002865099801F039F80146384600F01AFED7
:101CF000314600E00EE000F047FE01F070F804AB62
:101D0000686593E8070005F13C0383E80700D4F811
:101D10002801A8656A46B649404609F09DFDB448C9
:101D20000AAA14306946044609F096FD2146404649
:101D300009F06FFDAE486A460AA9483809F08CFDE3
:101D4000AB4968464839FFF726FE0FB08DE51FB551
:101D50000446A7486946483809F05BFDA44A69462D
:101D6000283A204609F078FDA1491DCC383981E890
:101D70001D001FBD2DE9F0479D4E0446483E90F8DA
:101D8000740006F15C0A06F12008012500F05001FC
:101D9000103692B004F5887904F15C07402906D02A
:101DA00094F8200100F0500040280DD01EE031468C
:101DB0003846FFF761FDB4F82001C0050CD5514647
:101DC000484609F026FD07E05146484609F021FD46
:101DD000B4F87400C00509D585486946483809F04B
:101DE00018FD42466946304609F036FDB4F8200138
:101DF000C005204602D5FFF7B3FE01E0FFF72EFE37
:101E00007B4932464839404609F026FD94F8740073
:101E1000400671D5208EB4F820110843C00578D54E
:101E20000FAA3946304609F075FED4E9172080FB29
:101E30000001C2FB0201626E6D4FC2FB0201483F0E
:101E40004FF08042801A71F1020014DB04A809F0FF
:101E50008BFADDE9042080FB0001C2FB0201069A37
:101E6000C2FB02014FF08042801A71F1020002DBD6
:101E70000420B8630BE0B86B042808D041F2883224
:101E8000022806D0032804D001283AD009E0002512
:101E900007E0E16E91FBF2F5012D00DA0125032840
:101EA00000D0AD00534800244543109807948002A9
:101EB000294609F075FC08900F9829464042800297
:101EC00009F06EFCCDE909040BAA314607A809F018
:101ED000C3FC32460BA9104609F068FC314608469F
:101EE000FFF759FD42486946483809F092FC4246DE
:101EF0006946304609F0B0FC12B00020BDE8F0871A
:101F000007E0E06E90FBF2F0012800DA01204500C6
:101F1000C7E7334619463846E26EFFF7D7FBE1E7DD
:101F200070B50446008EC105D4F8200107D4B4F87A
:101F30007410C90503D4C10501D4002070BDC0F3DD
:101F40000120032808D02046FFF714FF2848A16B82
:101F500038380AF083F8F0E704F5887124482EC970
:101F6000383880E82E00F1E723480AF089B8204885
:101F700010B56C21483800F09BFB1D484FF08041A4
:101F80004838016101600162C163C165002010BD74
:101F90001D4810B5082219A1006800F09BFB08B18C
:101FA000322010BD1322BDE81040C821124809F0AC
:101FB0003DBE10B5FFF7DBFF002805D1AFF22F00C3
:101FC000BDE8104009F0C0BE10BD10B50A480AF0C7
:101FD00057F8AFF24300BDE810400AF07FB80000A8
:101FE000DB0F49400000344300247449000080CED8
:101FF0000C280020A69BC400211F0008654D504CF2
:1020000020352E310000000098000020002803DD5C
:10201000FE490122C1E920020020704710B5B82115
:10202000FA4800F045FBF948F949C160F949816077
:10203000F9490160F94941604FF0804141664FF430
:10204000FA61C167F649C0F89C10002010BD2DE967
:10205000F041EE4C0E4607460025216800F09AFF3D
:1020600011D33846616800F08BFF0CD3206901283A
:1020700013D13046E16800F08DFF04D33046A168EB
:1020800000F07EFF09D2606F20B9E048A16D1830E2
:1020900009F0DAFE0120C4E91D05D4E91E018842D9
:1020A00004DB606F012800D1E5656567BDE8F0815C
:1020B00070B50C46054609F081F8D44A002110B9E4
:1020C000D848854202DD1161516102E010690028A3
:1020D00008D1506920445061B0F5FA7F02DD01203B
:1020E000C2E9040170BDF0B58DB00D461446064638
:1020F000694609F02EFD09AA3146284609F0ACFBD5
:102100002946304609F085FB0021EC460DF1240EEE
:1021100000231A46184601EB41073D180EEB8006D6
:102120005CF825507668401CC5FB06320328F4DBBA
:10213000980F40EA820044F82100491C0329E7DB9C
:102140000DB0F0BDB1490020C1F88C00704770B5EA
:102150000446806800F001FE014600F0E3FB0546FE
:10216000606800F0FAFD014600F0DCFB06462068DE
:1021700000F0F3FD014600F0D5FB314600F07AFB9C
:10218000294600F077FB0AF041FFBDE870406FF090
:102190000F0100F037BC70B50E4600259B4C0121A5
:1021A00030B101280CD0C4F8981044F88C5F29E0B5
:1021B000C4F8A060C4E92965E4E92415A56070BDF0
:1021C0003046D4F8A01000F0A7FB20F00040D4F86F
:1021D0009C1000F0D5FE13D254F8945F31466D1C6C
:1021E0002560206900F046FB2061943C312DE6DD3E
:1021F000022144F8901F8C4900F0C6FBA06170BD1D
:1022000044F8905F656070BD2DE9FF4F8BB00026EC
:102210007E4C0546039604960596D4F888009346AE
:10222000374600287ED009F067F810B103A809F0FE
:102230002FF8D4F88000A146002819DD01204C4673
:10224000C9F8840009F058F848B103A809F05CF80F
:102250008009B0F5C87F02D2D4F8800004E0D4F839
:102260008000401BC4F88000002801DCC4F88470A2
:1022700009F0E2F9002855D000240E9850F8240007
:1022800000F06BFD82465BF8240000F066FD6FF005
:102290000F08414600F0B6FB514600F043FB4146B3
:1022A00000F0B0FB314600F0E5FA641C0646032C52
:1022B000E3DB5846FFF74BFF01460690304600F03F
:1022C00063FB4FF07E58DFF864A1404501DD4046D6
:1022D00002E0504500D9504608F00AFD8346D9F87F
:1022E0008C004E4670B13168069800F049FE09D264
:1022F0007168069800F04EFE04D25946D6F8900058
:10230000FFF749FF684609F04FF840490C22AC310D
:10231000684600F0DFF918B9D6F8980001286CD1AA
:102320003A4800E0C6E09DE80E00AC3080E80E00C0
:10233000009818B9019808B9029858B36846FFF791
:1023400006FF044610F0FF4F57D0DFF8E490204618
:10235000494600F0E1FA014600F0E4FA0AF056FEC0
:1023600070604946204600F085FA014600F0DAFA2E
:102370000AF04CFE3060029800F0EFFC6FF00F01A5
:1023800000F040FB214600F0FFFA044640451FDD07
:10239000444620E02048306020487060D6F898001D
:1023A000012804D01B48B0601948F06025E0D6F839
:1023B0009C80D6F8A8404146204600F0ADFAB060B7
:1023C0004146204600F056FAC6F89870F06014E0D6
:1023D000544500D95446204608F08AFCD6F89C1093
:1023E00000F09AFAB060204608F082FCD6F89C1003
:1023F00000F040FAC6F88C70F060DFF81080F16DE4
:1024000008F1580801BB0120002413E03028002007
:102410000000B4420000B4C2000070420000F0416D
:102420007B142E3E00401C4600004842000080BF46
:1024300000002041F06506EB04104146183008F01A
:10244000E9FE641C042CF6DB434907AA0C460C98F1
:10245000FFF749FE21460C9809F0DBF903A808F0C4
:1024600053FF00F083FC6FF0050100F0CBFA294622
:10247000FFF71EFE59460698FFF7E9FDD6E91E0153
:10248000884201DA2844B067706F90B9306E2844F2
:102490003066B0F57A7F0CDD2F4930223C39A1F14E
:1024A0001000376600F0DDF82B4841461C3808F074
:1024B000B1FE706F0FB0BDE8F08F70B588B0044604
:1024C00004A808F0BBFED4E93001451A684608F0BC
:1024D00067FE064604AB04F1A00269462846FFF7F2
:1024E00093FE09F0C3FC08B0304670BD04224FF4DF
:1024F0009671AFF2390009F099BBAFF2410009F0D3
:10250000BFBD10B5FFF78AFD00280DD1124800218C
:102510006438C0F88C100121C0F88810AFF2330085
:10252000BDE8104009F010BC10BD10B5AFF2750049
:1025300009F0A6FDAFF27D00BDE8104009F0A0BD96
:10254000054901206439C1F88C0000207047024819
:102550006438406F70470000942800202DE9F05F38
:102560000546002092469B46884606468146402402
:102570001BE0284641464746224600F02BFD5346C5
:102580005A46C01A914110D311461846224600F00F
:1025900047F82D1A67EB01084F462246012000211B
:1025A00000F03EF817EB00094E41201EA4F1010493
:1025B000DFDC484631462A464346BDE8F09F2DE918
:1025C000F0410024061B254671F1000605DA0124BE
:1025D0000027D0EB070067EB0101161E73F1000620
:1025E00005DA0027D2EB0702012567EB0303FFF7AB
:1025F000B5FF86460E4617469C46AC4204D00025E1
:10260000D0EB050E65EB010624B10020D2EB0007EC
:1026100060EB030C704631463A466346BDE8F081F4
:10262000202A04DB203A00FA02F100207047914092
:10263000C2F1200320FA03F3194390407047202A87
:1026400006DBCB17203A41FA02F043EAE07306E0DA
:1026500041FA02F3D040C2F12002914008431946EA
:10266000704710B5431A934209D28318881803E0C3
:1026700010F8011D03F8011D521EF9D210BD40EAE9
:1026800001039B0703D009E008C9121F08C0042AF0
:10269000FAD203E011F8013B00F8013B521EF9D2D7
:1026A00010BDD2B201E000F8012B491EFBD27047E9
:1026B0000022F6E710B513460A4604461946FFF70E
:1026C000F0FF204610BD421C10F8011B0029FBD171
:1026D000801A704730B504460020034600E05B1CBA
:1026E000934203D2E05CCD5C401BF8D030BD0000CB
:1026F0000FB400B58DB010A909900B9000914FF068
:10270000FF300A9000200C9005480690054807907D
:102710006A4609A80F9900F081FC0DB05DF814FB22
:1027200039300008573000082DE9FF5F1D464FF093
:10273000FF3BD5E9014691465F464FF00008A96985
:102740007F1C01988847296A824688470028F6D16D
:10275000BAF1FF3F0CD024F4C064002E19DD6006EE
:1027600014D5BAF12B0F09D0BAF12D0F0ED103E019
:10277000584604B0BDE8F09F44F48064A9697F1C0A
:1027800001988847761E8246002E02DDBAF1300F8E
:1027900003D0B9F1000F26D032E0A969761E44F4C7
:1027A00000747F1C019888478246002E05DDBAF12F
:1027B000780F06D0BAF1580F03D0B9F1000F10D03E
:1027C0001EE0B9F1000F02D0B9F1100F18D1A969BC
:1027D000761E24F400747F1C0198884782461020DE
:1027E00002E0082000E00A20814609E008FB090811
:1027F000A969761E44F400747F1C019888478246BC
:10280000002E05DD4946504600F0F4FB0028EDDAC5
:10281000E96901988847A00502D46FF00100A8E794
:10282000E00725D1600613D5600502D5C8F1000088
:1028300000E0404629680A1D2A600968220501D582
:10284000087015E0220701D5088011E008600FE04C
:102850002868011D29600068210502D580F80080E4
:1028600006E0210702D5A0F8008001E0C0F8008052
:1028700038467EE7F0B480EA0102D40F4200B2EBA2
:10288000410F02D20246084611464A0042D0C30D0B
:10289000DDB2C1F3C752AD1A202D35DAC1F31601EE
:1028A00041F4000204B15242C5F1200602FA06F1D9
:1028B0002A411044B3EBD05F23D0C4B1012DA0EB6B
:1028C000C35009DCF0BC4FF0004202EAC352DBB255
:1028D00000F5000000F0D9BB400000F1807000EB73
:1028E000C350A0F1807040EAD170490009E0490866
:1028F00041EAC071A0EBC35000F50000400800EBB6
:10290000C350F0BC00F0B8BB6142012202EB4101B0
:10291000001BF6E7F0BC704781F00041AAE780F0A9
:102920000040A7E780EA010210B502F00043400032
:1029300022D04A001FD0010E01EB1261C0F35600F5
:10294000C2F3560240F4000042F40002A0FB022051
:1029500000047F39140400D0401C50EA124001D416
:102960004000491EC2B20C0604EBD010401C4008C7
:10297000802A02D003E0002010BD20F001000029D1
:1029800000DA0020184310BD30B480EA010202F0E2
:10299000004530F0004221F0004013D090B1C30D4B
:1029A000D40DC2F31601C0F31600E41A41F400017D
:1029B00040F400027D34914201D3641C00E04900E0
:1029C000002C02DA30BC002070474FF400000023D6
:1029D000914201D3891A034340084FEA4101F7D1DC
:1029E00051B1914202D14FF0004105E002D24FF0C7
:1029F000010101E06FF0010103EBC450284430BC39
:102A000000F03ABB420005D0C0F3C7525242914297
:102A100001DC0020704700EBC15070472DE9FE4FEC
:102A2000804681EA0300C00F0C46009021F000416F
:102A300023F00045B8EB0200A94105D240462146EB
:102A400090461C460B46024623F00040104347D0F8
:102A5000270DC7F30A00C3F30A510290401A0190F0
:102A600040286BDAC3F3130040F4801B00989246B1
:102A700020B10023D2EB030A63EB0B0B01985946FC
:102A8000C0F140025046FFF7CBFD06460D465046CA
:102A90005946019AFFF7D3FD10EB0800614100246D
:102AA00087EA115284EAE7731A4340D0009A62B36E
:102AB000019A012A4FEA075215DC001B61EB020163
:102AC0004FF0004202EA0752CDE90042001C41F5F6
:102AD000801132462B4600F015FB03B0BDE8F08FA5
:102AE00040462146F9E7001B61EB0201001C41F55D
:102AF000801300185B412018A2F5001747EB030173
:102B000040EAD570B6196D4111E06D084FEA3606FE
:102B100045EAC0754FEA0752001B61EB0201001C39
:102B200041F5801149084FEA300000195141324601
:102B30002B4603B0BDE8F04F00F0D5BA0098012253
:102B400040000023D0EB020263EBE07300982146C3
:102B50004FEAE074B8EB000061EB0401E9E783F0B1
:102B600000435BE781F0004158E72DE9FE4F81EA21
:102B7000030404F0004421F0004100944FF0000BE6
:102B800023F0004350EA01045ED052EA03045BD014
:102B9000C3F30A54C1F30A552C44A4F2F33401944C
:102BA000A0FB0254C1F3130141F48011C3F31303DA
:102BB00043F4801301FB024400FB034E840A970A8E
:102BC00044EA815447EA8357A4FB076802958D0ABB
:102BD00005FB07854FEA932C04FB0C542705029D47
:102BE0004FEA065847EA1637B5EB08056EEB070CB7
:102BF000870E920E47EA811742EA8312A7FB020171
:102C0000B6EB0B0164EB00042B0D43EA0C335E18AA
:102C100044EB1C50DA465146E7FB0201C5F31304AE
:102C20004FEA0B3343EA14534FEA0432019C43EA60
:102C30000603A4F10C040294009CCDE900B400F05A
:102C400061FA03B0BDE8F08F00200146F9E72DE9F5
:102C5000F04D81EA030404F0004B21F000451446D6
:102C60004FF0000A23F0004150EA050220D054EA58
:102C700001021DD0C5F30A570246C5F31303C1F381
:102C80001300C1F30A5640F4801543F48013A7EBF8
:102C90000608101BD64608F2FD3873EB050002D378
:102CA00008F1010801E092185B41B8F1000F03DA66
:102CB00000200146BDE8F08D00204FF4801106464B
:102CC00084460EE0171B73EB050705D3121B63EB5D
:102CD000050306434CEA010C49084FEA30009218FC
:102CE0005B4150EA0107EDD152EA030012D082EABB
:102CF000040083EA0501084305D0101BAB4106D24E
:102D00000122002306E000224FF0004302E06FF0B2
:102D1000010253101AEB06004CEB085110EB0A00AD
:102D200041EB0B01BDE8F04D00F0DDB970B521F0CD
:102D3000004303430CD0C1F30A550024D5EB04052E
:102D400064EB0403D617AD1AB34102DB0020014641
:102D500070BD201841EB025170BDC10F80EAE070D8
:102D60000844CA079623002100F08FB99623002259
:102D7000114600F08AB9F0B4CA17CB0F5040514049
:102D8000C61841F100054FEAC372314628004FF0E2
:102D9000960303D0B623F0BC00F077B9304600218B
:102DA000F9E70EB5C10F80EAE0700844CA070021B8
:102DB00040F233438DE80E000A460B4600F0A2F9BC
:102DC00003B000BD0EB540F2334102910021CDE9C0
:102DD00000110A460B4600F095F903B000BD00F063
:102DE000004220F00040C10DC0F3160040F4000086
:102DF0007F2901DA00207047962903DCC1F1960192
:102E0000C84001E096398840002AF4D0404270471B
:102E100010B500F0004420F00040C20DC0F31600D1
:102E200040F400007F2A02DA0020014610BD002194
:102E3000962A03DCC2F19602D04002E0963AFFF7F0
:102E4000EFFB002CF2D00023D0EB030063EB010179
:102E500010BD70B5C1F30A5201F000450024C1F362
:102E6000130140F2FF3341F480119A4201DA00204D
:102E700070BD40F233439A42A2F2334203DC524225
:102E800000F0A8F800E090402C43F1D0404270BD23
:102E9000C1F30A5210B5C1F3130140F2FF3341F4FC
:102EA00080119A4201DA002010BD40F233439A4269
:102EB000A2F2334203DC524200F08CF810BD904085
:102EC00010BD00F0004230F000400AD0C10D01F505
:102ED0006071C0F3160042EA0151C2084007114375
:102EE000704700200146704730B5041E71F10004A0
:102EF00004DB4FF00044404264EB0101141E73F107
:102F0000000405DB1C464FF00043524263EB040310
:102F10008B4208BF824230BD30B5041E71F10004FF
:102F200004DB4FF00044404264EB0101141E73F1D6
:102F3000000405DB1C464FF00043524263EB0403E0
:102F4000994208BF904230BD01F0004330B421F0F7
:102F5000004150EA010206D00A0DA2F56072C1F3E9
:102F60001301002A02DC30BC00207047440F44EA01
:102F7000C104C100E01830BC00EBC25000F07CB8C6
:102F8000002801DBC0F10040002901DBC1F1004154
:102F900081427047002801DBC0F10040002901DBBD
:102FA000C1F100418842704730B50B460146002010
:102FB0002022012409E021FA02F59D4205D303FAFB
:102FC00002F5491B04FA02F52844151EA2F101027C
:102FD000F1DC30BD202A04DB203A21FA02F0002186
:102FE000704721FA02F3D040C2F120029140084319
:102FF000194670473A2800D2303820F02002412A82
:1030000001D3A2F13700884201D34FF0FF3070475F
:10301000026811441378016018467047D160044972
:1030200051610449116200211161114600F03AB961
:103030001130000899320008426842B1016811F865
:10304000013B23B1521EC0E900121846704701210E
:10305000C160881E704742685AB1C368016843B9AD
:1030600083688B4205D0491E521CC0E90012002023
:1030700070474FF0FF3070470029A8BF7047401CD1
:10308000490008BF20F00100704710B4B0FA80FC7E
:1030900000FA0CF050EA010404BF10BC704749B1BB
:1030A000CCF1200421FA04F411FA0CF118BF01212B
:1030B00021430843A3EB0C01CB1D4FEA00614FEA0B
:1030C000102042BF002010BC704700EBC3501044DA
:1030D0000029A4BF10BC7047401C490008BF20F065
:1030E000010010BC704710B5141E73F1000408DA1B
:1030F000401C41F1000192185B411A4301D120F0BC
:10310000010010BD2DE9F04D92469B4611B1B1FA78
:1031100081F202E0B0FA80F220329046FFF780FAA6
:1031200004460F4640EA0A0041EA0B0153465A465C
:10313000084313D0114653EA010019D0C8F14002E8
:103140005046FFF747FF05460E4650465946424651
:10315000FFF766FA084305D0012004E0204639460F
:10316000BDE8F08D0020054346EAE0762C43374366
:103170000A986305E40AA0EB08000022FD0A44EA6D
:1031800047540A3002D500200146E9E7010510192D
:103190006941DDE9084500196941BDE8F04DA2E744
:1031A0002DE9F04D00231A461B1A8A4103DB00204B
:1031B0000146BDE8F08DC1F30A52C1F3130141F499
:1031C00080154FF0000BD10702D100186D41521E3F
:1031D0000027044640F2FF11384601EB620A3E46E2
:1031E0008046024600204FF48011FFF7F3FEC2191B
:1031F0007141BB1846EB0100B4EB030C75EB000CFE
:1032000004D3E41A65EB000517460E46241908F1AD
:1032100001006D4180463428E3DDF91946EB0600D4
:10322000091BA84103D24FF0FF32134601E00022F0
:1032300013461BEB070046EB0A51BDE8F04DFFF7C4
:1032400052BFC1F30A52C1F3130140F2FF3341F4FC
:1032500080119A4202DA00200146704740F233435F
:103260009A42A2F2334202DC5242FFF7B3BEFFF7AA
:10327000D7B90000064C074D06E0E06840F00103B6
:1032800094E8070098471034AC42F6D3FCF780FF6F
:10329000C0D30008E0D30008C0B24FF4F05100F0F2
:1032A00097B900002DE9F34F8BB04FF0000801F102
:1032B0000C000C464FF0010B46460DF1080A019038
:1032C0006269012101989047051E2DD0252D2CD033
:1032D000216A8847C0B16269012101989047216A3B
:1032E00088470028F7D1411E62690198904700E0A5
:1032F000761CA1690B988847216A88470028F7D176
:10330000E1690B988847DBE7A1690B988847074676
:10331000A84201D1761CD3E7E1690B9888477F1C4E
:1033200002D1B8F1000F6FD046E1002762693D4637
:103330003946019890472A2804D1626901210198F1
:1033400090470125DFF88492626901210198904736
:10335000A0F130010A290AD24F45E5DC07EB8701CD
:1033600000EB4107303FDFD445F01005ECE7E906FC
:1033700001D46FF000476C280AD04C2814D068287C
:1033800015D06A280DD074281CD07A281AD01DE0D8
:1033900062690121019890476C2802D045F004052C
:1033A00014E045F002050DE045F020050AE06269F1
:1033B000012101989047682802D045F0080505E0F2
:1033C00045F400656269012101989047C4E90157FD
:1033D00065283DD019DC58287AD00CDC452837D038
:1033E00004DC252826D0412831D131E046282FD0D1
:1033F00047282CD12CE05B2877D0612828D063287F
:103400007CD0642823D15AE0D0E06F2848D008DC73
:1034100066281DD067281BD0692821D06E2816D1B8
:1034200027E0702845D0732868D0752847D07828C1
:103430000DD14DE0A1690B988847054625283FF43A
:1034400069AFE1690B9888476D1C3FF46AAFB3E040
:1034500023466A466FF001000B99AFF300809EE0AF
:1034600045F040006060A80723464FF0000236D4C4
:103470003EE0E8077FF447AF2068011D2160006847
:10348000290501D506701BE7290701D5068017E736
:10349000A90703D5F117C0E9006111E706600FE73E
:1034A00045F040006060A80723464FF0080216D49C
:1034B0001EE040F60E0125EA0100606016E045F0CE
:1034C00040006060A80723464FF00A0207D40FE0CF
:1034D00045F040006060A80708D5234610226FF031
:1034E00001000B99AFF3008059E007E0234610225A
:1034F0006FF001000B99FFF717F950E04FF000094A
:103500004F464B46632802D05B2806D040E0E806D1
:1035100001D40120A06001273AE0626901210198ED
:1035200090475E2805D14FF001096269494601982C
:103530009047216939B900210A46534643F82120B2
:10354000491C0829FADBB0B3216969B9C11700EB3E
:10355000D16253110AEB830122F01F02821A01206B
:103560000B68904003430B6062690121019890470A
:103570005D28E8D1B9F1000F09D00020514651F87B
:103580002020D24341F82020401C0828F7DB02AB62
:10359000224600976FF001000B99AFF300800028DE
:1035A0000CDA401C08D1BBF1000F05D04FF0FF3002
:1035B0000DB0BDE8F08FFFE74046F9E7E90701D11C
:1035C00008F1010806444FF0000B79E6CCCCCC0C96
:1035D0007F2801D9002208E0064A02EB5002C0070A
:1035E000127800D1120902F00F0201209040084029
:1035F0007047000030D3000870B58C1810F8015BDC
:1036000015F0070301D110F8013B2A1106D110F87B
:10361000012B03E010F8016B01F8016B5B1EF9D17F
:103620002B0705D40023521E0DD401F8013BFAE705
:1036300010F8013BCB1A921C03E013F8015B01F870
:10364000015B521EF9D5A142D8D3002070BD000005
:1036500006489FED050A80ED000A054991ED030A31
:1036600080ED010A70470000000000008002002089
:10367000F0020020FEE704284FF000007047002011
:103680007047000010B500220449054803F0E4FE2D
:103690000449034803F0DAFE002010BDB4140020F2
:1036A000A0040020B40C002010B501460C4803F023
:1036B000CDFE0B4803F0A9FE0A4B0BA11A1F0C48C4
:1036C000FFF716F80748001F0168A1F59671016021
:1036D0004268F03A426007A009F0B7FC002010BD34
:1036E000A0040020E800002025642C2025640000B0
:1036F000B40C002025642C2025640D0A0000000075
:1037000010B50A460849D1F81812D1F81412002948
:1037100001D0012010BD0146034803F09DFEBDE825
:103720001040014803F0DCBEA0040020704790F870
:103730003510022903D08021416501207047052101
:1037400080F835100068016821F001010160002057
:103750007047000070B5044600F0F0F80546601CA4
:1037600002D004480078044400F0E8F8401BA0426E
:10377000FAD370BDEC0000202DE9F84F0022DFF8ED
:103780009091DFF88C8109F108094FF0010E4FF09C
:103790000F0C09F1040A0EFA02F60B683340B3422B
:1037A00071D14C68022C01D0122C11D1D40800EB3D
:1037B00084073D6A5407E40E0CFA04FB25EA0B0566
:1037C000D1F810B00BFA04FB4BEA050BC7F820B098
:1037D000076854000325A540AF4391F804B00BF0EF
:1037E000030B0BFA04FB4BEA070BC0F800B04F6861
:1037F000012F05D0022F03D0112F01D0122F11D18C
:103800008768AF43D1F80CB00BFA04FB4BEA070B07
:10381000C0F808B04768B7430E79C6F30016964063
:103820003E434660C668AE438D68A5403543C560DB
:103830004C68E40065D5374C256845F48045256023
:10384000246804F480440094334C22F0030525449A
:10385000D5F808789407260F0CFA06F4A7432F4CE6
:10386000A04201D1002424E02D4CA04201D101242A
:103870001FE02C4CA04201D102241AE02A4CA042A5
:1038800002D1032415E03CE0284CA04201D10424DD
:103890000FE0274CA04201D105240AE0254CA042AC
:1038A00001D1062405E0244CA04201D1072400E008
:1038B0000824B4403C43C5F80848D8F800409C436D
:1038C0004D68ED0300D51C43C8F80040104D2D1D78
:1038D0002C689C434E68B60300D51C432C60D9F875
:1038E00000409C434D68ED0200D51C43C9F80040E0
:1038F000DAF800409C434D68AD0200D51C43CAF87D
:103900000040521C102AFFF446AFBDE8F88F0000BB
:10391000003C0140443802400030014000000240B9
:103920000004024000080240000C02400010024067
:103930000014024000180240001C02400148806848
:1039400070470000EC00002070B50446002C04D045
:1039500094F83D00002510B106E0012070BD84F808
:103960003C50204600F07AFA242084F83D0020687C
:10397000016821F00101016001F0F6F83349B0FB64
:10398000F1F122685160324A6368934201D8491CC0
:1039900007E04FF4967359434FF47A73B1FBF3F198
:1039A000491C23681962616891420BD84900B0FB39
:1039B000F1F2C2F30B02042A01D2042019E0B0FB99
:1039C000F1F016E0A2689AB301EBC10303EB011317
:1039D000B0FBF3F343F480431B0530D04AB301EB53
:1039E000C10202EB0111B0FBF1F040F4804040F461
:1039F00000402168C861D4E90701084321680860D4
:103A0000D4E90310084321688860D4E9050108431C
:103A10002168C8602068016841F0010101602564E7
:103A2000202084F83D00256384F83E50002070BDBE
:103A300000E006E001EB4103B0FBF3F3CCE701202B
:103A4000D7E701EB4101B0FBF1F0D0E740420F00B6
:103A5000A08601002DE9FF4F83B00446DDE91198EF
:103A60008A469346109FFFF769FF054694F83D008C
:103A7000202803D0022007B0BDE8F08F19230122CF
:103A80009B492046009501F047FF08B10220F2E76C
:103A900094F83C00012807D0012084F83C002068FD
:103AA0000168C90702D005E00220E4E7016841F09F
:103AB000010101602068016821F400610160222099
:103AC00084F83D00402084F83E00002626646762AA
:103AD000A4F82A908748E062608D2085CDE90085B2
:103AE0005A4651462046069B01F0EAFD50B1206C33
:103AF000042803D084F83C600320BCE784F83C60D1
:103B00000120B8E7208D48B1012810D002281CD030
:103B10002068416980690290774FDDE02068416943
:103B200081690291016841F400710160F4E7206845
:103B3000016821F480610160206841698169029116
:103B4000016841F400710160E6E72068016821F432
:103B5000806101602068016841F4006101602068B3
:103B6000416980690290D7E703287DD801280BD0EE
:103B7000022823D04346002239462046009501F012
:103B8000CBFEE8B3032076E72A464146204601F003
:103B900047FF30B1206C202801D001206BE70320C3
:103BA00069E720680169606A421C62620170208DC9
:103BB000401E2085608D401E60858DE043460022BA
:103BC00039462046009501F0A7FE08B1032052E7D0
:103BD0002068016841F40071016020680169606A31
:103BE000421C62620170208D401E2085608D401E47
:103BF000608520680169606A421C6262017000E0B1
:103C000006E0208D401E2085608D401E608563E0AB
:103C10002068016821F48061016020680169606AA0
:103C2000421C62620170208D401E2085608D401E06
:103C300060854346002239462046009501F06CFE1F
:103C400008B1032017E72068016841F400710160A2
:103C500020680169606A421C62620170208D401E0A
:103C60002085608D401E00E00DE0608520680169C0
:103C7000606A421C62620170208D401E2085608D4A
:103C8000401E608528E02A464146204601F0C8FED5
:103C900030B1206C202801D00120ECE60320EAE6B8
:103CA00020680169606A421C62620170208D401EBA
:103CB0002085608D401E608520684169C9434907A1
:103CC0000AD40169606A421C62620170208D401E44
:103CD0002085608D401E6085208D00287FF444AFD4
:103CE00020203C346070A67026700020C3E60000DF
:103CF000020010000000FFFF040001002DE9FF4F4B
:103D000083B00446DDE910898A469346129FFFF787
:103D100015FE054694F83D00202803D0022007B088
:103D2000BDE8F08F192301224A492046009501F091
:103D3000F3FD08B10220F2E794F83C00012807D017
:103D4000012084F83C0020680168C90702D005E022
:103D50000220E4E7016841F0010101602068016888
:103D600021F400610160212084F83D00402084F8A6
:103D70003E0000262664C4F82480A4F82A90364821
:103D8000E062608D2085CDE900755A465146204697
:103D9000069B01F037FDD0B3206C042803D084F8D3
:103DA0003C600320BBE784F83C600120B7E72A466B
:103DB0003946204601F065FE58B1206C042801D038
:103DC0000320ACE72068016841F400710160012024
:103DD000A5E7606A411C6162216800780861208D56
:103DE000401E80B22085618D491E61852368596916
:103DF000C94349070BD450B1606A411C6162007825
:103E00001861208D401E2085608D401E6085208DAC
:103E10000028CCD12A463946204601F057FD58B13A
:103E2000206C042801D0032079E72068016841F460
:103E300000710160012072E71F3454F81F0C016803
:103E400041F4007101602020A077E67766770020BA
:103E500065E70000020010000000FFFF00B587B01A
:103E600000680E49884217D14FF44060029012203A
:103E7000039001200490032005900420069002A9DD
:103E80000748FFF779FC0748016841F480010160A9
:103E9000006800F48000019007B000BD00580040A9
:103EA0000004024040380240024881680278114410
:103EB00081607047EC00002010B50B48016841F4A8
:103EC00000710160016841F480610160016841F4A2
:103ED00080710160032000F0E1F8002000F006F896
:103EE00000F026F8002010BD003C024070B50446EA
:103EF0000D4D4FF47A712878B1FBF0F00B49096849
:103F0000B1FBF0F001F05BF808B1012070BD102C9E
:103F100007D200222146501E00F0A0F86C6000205D
:103F200070BD012070BD0000EC000020F8000020F2
:103F300008B51F48016841F480410160006800F441
:103F4000804000901A48001F016841F080510160D4
:103F5000006800F080500090032000F09FF80022DD
:103F600011466FF00B0000F079F8002211466FF057
:103F70000A0000F073F8002211466FF0090000F00B
:103F80006DF800221146501F00F068F8002211461B
:103F9000101F00F063F800221146901E00F05EF83A
:103FA0000022BDE808401146501E00F057B800003E
:103FB000443802402DE9F04104460E461746002CD5
:103FC00004D094F83900002518B107E00120BDE8BD
:103FD000F08184F83850204601F0F0FA242084F86B
:103FE00039002068C16821F40051C160204602F008
:103FF0008BFF2068016921F49041016120684169CB
:1040000021F02A0141612068016921F00F0101615D
:1040100020680169314301612068C16821F40061B1
:10402000C1602068C1683943C1602068C16841F43B
:104030000051C160E563202084F8390084F83A001B
:104040000020C4E700F01F020121914040098000D8
:1040500000F1E020C0F8001170470000F0B40D46F8
:104060000D4B1B68C3F30223C3F10704042C00D9D2
:104070000424191D072901D2002300E0DB1E0126BC
:1040800006FA04F1491E294099409E40761E1640CA
:104090003143F0BC02F0A0B80CED00E000F00701E5
:1040A000054A10684FF6FF03184040EA0120034913
:1040B00008431060704700000CED00E00000FA05B6
:1040C000006841620020704770B500230068446AB0
:1040D000002906D0856A04EB15444FF48275491E09
:1040E0000AE044EA024181620DE005EB830686594D
:1040F00004EB16445B1CDBB28B42F6DB05EB810163
:1041000044EA02424250002070BDD0F8EC0303F0B4
:10411000BDBCC1EBC10200EB8202D0F8EC03526CD3
:1041200003F021BCC1EBC10200EB8202D0F8EC032A
:10413000D2F8042203F074BCD0F8EC0303F0A8BC5E
:1041400010B504460A4602F07F00C0EBC00113061A
:1041500004EB810101D5383101E001F5FC710870F3
:10416000D009487094F8B803012809D0012084F8D8
:10417000B803206804F036F8002084F8B80310BDB6
:10418000022010BD70B504460846010600F07F020B
:1041900005D5C2EBC20104EB8101383105E0C0EB6B
:1041A000C00104EB810101F5FC7100258D700A70DE
:1041B000C009487094F8B803012809D0012084F898
:1041C000B803206804F0F4F984F8B853002070BDF7
:1041D000022070BD01F00F01C1EBC10100EB8100B5
:1041E000B0F8100280B2704770B504460D4605F075
:1041F0007F00C0EBC0012E0604EB810101D53831F0
:1042000001E001F5FC710870ED094D708A60CB701A
:1042100005B1C8800025022B00D10D7194F8B803B8
:10422000012809D0012084F8B803206803F028FF92
:10423000284684F8B85370BD022070BD70B50D4695
:1042400005F07F04C4EBC40100EB810101F5FC71B2
:10425000CA604B6100238B614B700C700369012BAA
:1042600000D10A616A0605D0027C006804F002FAF7
:10427000002070BD027C006804F0DAF8F8E770B541
:1042800004460D46290605F07F0005D5C0EBC001A8
:1042900004EB8101383105E0C5EBC50104EB810178
:1042A00001F5FC7101228A700870E809487094F8E1
:1042B000B803012807D084F8B823206804F0AAF9CD
:1042C000680602D007E0022070BD217C04F56F7201
:1042D000206804F051F9002084F8B80370BD70B56F
:1042E0000D4605F07F04C4EBC40100EB81013831B9
:1042F000CA604B6100238B6101234B700C70036912
:10430000012B00D10A616A0605D0027C006804F026
:10431000B1F9002070BD027C006804F089F8F8E76C
:104320002DE9F84F044626680025304604F006FBC8
:10433000002872D1206804F02AFB00286DD0206884
:1043400004F025FB800704D52068416901F00201D3
:104350004161206804F01BFB010304F56F704FF00E
:1043600001094FF0080A4FF0100B00904AD5206861
:1043700004F0EFFA074643E0F8073FD0E9B22068BF
:1043800004F0FDFA80465FEAC87026D006EB4512BD
:10439000C2F8089B206901280FD1C5EBC50004EBCA
:1043A000800000F50070D2F8102B0168C2F31202F1
:1043B0008A1A0261426811444160E9B22046FFF75F
:1043C000B1FE2069012808D13DB9D4F80C0220B90A
:1043D00020680121009A04F0CFF85FEA087006D542
:1043E000204600F0E4FA06EB4510C0F808AB5FEA9F
:1043F000C86003D506EB4510C0F808BB6D1C7F08EC
:10440000002FB9D1206804F0C2FA40035BD52068C0
:1044100004F098FA8046002552E0DFE15FEAC870B8
:104420004BD0E9B2206804F09BFA0746F80724D085
:1044300009FA05F0D6F834188143C6F8341806EBAB
:104440004510C0F808992069012807D1C5EBC500BF
:1044500004EB8000D0E9102111444164E9B2204608
:10446000FFF757FE2069012807D135B9E06C20B964
:1044700020680121009A04F07FF8380703D506EB85
:104480004510C0F808A9F80603D506EB4510C0F89A
:1044900008B9780604D506EB45114020C1F8080993
:1044A000B80704D506EB45110220C1F80809380603
:1044B00003D52946204601F0A5FE6D1C4FEA580899
:1044C000B8F1000FAAD1206804F061FA00280DDAD3
:1044D000D6F8040820F00100C6F80408204600F0D1
:1044E0004CFA2068416901F000414161206804F004
:1044F0004EFA00050BD5D6F80808C00702D02046B2
:1045000000F072FA2068416901F40061416120689D
:1045100004F03DFAC0044BD5D6F8040820F00100A1
:10452000C6F804081021206804F0D8F90020FF2202
:1045300006E006EB4011C1F80829C1F8082B401C21
:1045400061688142F5D84FF0FF30C6F81808D6F8F8
:104550001C0840F00110C6F81C08206B60B1D6F8AA
:10456000840840F00B00C6F88408D6F8440840F0F0
:104570000B00C6F844080BE0D6F8140840F00B0016
:10458000C6F81408D6F8100840F00B00C6F810085A
:10459000D6F8000820F4FE60C6F80008217C2068E8
:1045A000009A03F0E9FF2068416901F480514161FC
:1045B000206804F0ECF9800474D5206803F0A2FDB3
:1045C0002068C16821F47051C160206804F098F936
:1045D00080B10320E0604020606100F0BFFA8049B4
:1045E000804A0144914210D22068C16841F4705160
:1045F000C16068E00020E0604FF4007060612068F6
:10460000C16841F41051C1605DE07749774A0144C7
:10461000914205D22068C16841F46051C16052E006
:104620007349744A0144914205D22068C16841F43B
:104630005051C16047E07049704A0144914205D22F
:104640002068C16841F44051C1603CE06C496D4A4A
:104650000144914205D22068C16841F43051C160E3
:1046600031E06949694A0144914205D22068C16834
:1046700041F42051C16026E06549664A01449142F7
:1046800005D22068C16841F41051C1601BE0624945
:10469000624A0144914206D22068C16841F4005147
:1046A000C16010E017E05E4908445E49884205D2C7
:1046B0002068C16841F4E051C16004E02068C1682D
:1046C00041F4C051C160204600F046F920684169BC
:1046D00001F400514161206804F059F9C00637D552
:1046E0002068816921F010018161D6F8208008F0EE
:1046F0000F00C0EBC00004EB800707F5FC77C8F3A0
:104700004340022802D0062813D01CE047F6F07080
:1047100018EA000F17D0C8F30A1290463046F9681D
:1047200004F039F9F8684044F860B8694044B86169
:1047300009E008223046009904F02DF9B869C8F361
:104740000A110844B8612068816941F01001816153
:10475000206804F01CF9000707D5204600F011F985
:104760002068416901F008014161206804F00FF9F7
:10477000C00208D5E9B2204600F056F82068416929
:1047800001F480114161206804F001F9800208D52C
:10479000E9B2204600F04CF82068416901F40011AC
:1047A0004161206804F0F3F8400007D52046FFF788
:1047B000ACFC2068416901F080414161206804F04F
:1047C000E6F840070AD520684568680702D5204604
:1047D000FFF7B2FC2068416829434160BDE8F88FCB
:1047E000405327FF00350C00401E1BFF40420F00C6
:1047F00000DC0BFF804F1200808CF9FE20D61300E6
:1048000060B6E5FE60E3160000D3CEFE40771B00E5
:10481000C05BB3FEC091210000CA91FE2075380034
:10482000E05459FEE09C4100D0F8EC0303F08EB94F
:10483000D0F8EC0303F08CB9F0B58BB0044600253A
:10484000002C54D0032084F8B903204600F052F81D
:10485000206803F0E7FD04F1100128220F466846A6
:10486000FDF7FFFE94E80F0003F066FC00212068CE
:1048700004F0A1F801260022C5EBC50004EB80007E
:10488000383046700570C580C2708260C260426177
:104890006D1C0F2DF0D300204FF48273C0EBC001CC
:1048A00004EB810181F8F92181F8F801C88781F8CA
:1048B000FB21C1F80022C1F80422C1F80C222168B2
:1048C00003EB80054A51401C0F28E7D328223946C4
:1048D0006846FDF7C6FE94E80F0003F001FD84F87A
:1048E000B963206803F0F0FC00200BB0F0BD01209C
:1048F000FBE7000000B587B00068B0F1A04F25D1FC
:104900004FF4C05002900220039000200490032036
:1049100005900A20069002A90D48FEF72DFF0D48CC
:10492000016841F0800101600A481030016841F4DB
:1049300080410160006800F480400190002211462F
:104940004320FFF78BFB4320FFF77CFB07B000BD44
:10495000000002403438024010B504460121E068EE
:10496000002800D10021D4F8EC0303F054F9D4F866
:10497000EC03BDE8104003F01CB9D0F8EC0303F0E1
:1049800038B9D0F8EC0303F03AB910B5044694F8FE
:10499000B803012809D0012084F8B803206804F086
:1049A00021F8002084F8B80310BD022010BDD0F813
:1049B000EC2300F56F71104603F046B910B50446BC
:1049C00094F8B80301280CD0012084F8B8032068BB
:1049D00003F06EFC206803F06BFF002084F8B8033E
:1049E00010BD022010BD000010B50446D4F8EC0341
:1049F00003F083F92068D0F8001E41F00101C0F8EF
:104A0000001E206A002804D00248016841F0060117
:104A1000016010BD10ED00E02DE9F04704460D46A1
:104A2000002C13D0DFF82491D9F80000EFB200F089
:104A30000F00A8420CD289F80070D9F8000000F0ED
:104A40000F00A84204D00120BDE8F0870120FBE759
:104A500020683F4E810712D5400703D5306840F4E7
:104A6000E05030602078000703D5306840F46040A3
:104A700030603068A16820F0F00008433060207892
:104A8000C00731D0324960680839012808D00228AF
:104A90000BD0032809D0096889070BD40120D3E77C
:104AA0000968890306D40120CEE70968890101D489
:104AB0000120C9E7316821F0030101433160FEF7AD
:104AC0003DFF804641F2883A07E0FEF737FFA0EB52
:104AD0000800504501D90320B6E73068616800F04E
:104AE0000C00B0EB810FF0D1D9F8000000F00F00FE
:104AF000A84209D989F80070D9F8000000F00F0029
:104B0000A84201D001209FE72078400705D53068F2
:104B1000E16820F4E050084330602078000706D5B3
:104B20003068216920F4604040EAC100306000F044
:104B30003BF83168074AC1F30311515CC84006498C
:104B400008600020FFF7D2F900207DE7003C02401A
:104B5000083802406ED00008F800002001480068C4
:104B600070470000F800002000B5FFF7F7FF044988
:104B70000968044AC1F38221515CC84000BD0000AD
:104B8000083802407ED0000800B5FFF7E7FF04496F
:104B90000968044AC1F34231515CC84000BD0000BD
:104BA000083802407ED0000810B51748006810F0A1
:104BB0000C01164816D04310042912D0082911D12F
:104BC000114C241F216801F03F02216849020AD5D7
:104BD0002068C0F38810A0FB03010023FDF7BEFC92
:104BE00009E0184610BD21680023C1F38811A1FB1C
:104BF0000001FDF7B3FC2168C1F30141491C4900E4
:104C0000B0FBF1F010BD0000083802400024F400B1
:104C10002DE9F84F0446002C10D02078DC4DC00759
:104C200057D0DB4808300168C1F3810101290DD05C
:104C30000068C0F38100022803D00EE00120BDE827
:104C4000F88FD348001D0068400206D5286880030D
:104C50003FD5606870BB0120F1E76068B0F5803F28
:104C600010D0B0F5A02F12D0286820F48030286032
:104C7000286820F4802028606068E0B1FEF75EFEBE
:104C8000064614E0286840F480302860F4E728687D
:104C900040F480202860286840F480302860EBE7EA
:104CA000FEF74CFE801B642801D90320C7E7286863
:104CB0008003F5D50DE0FEF741FE064606E0FEF75F
:104CC0003DFE801B642801D90320B8E728688003D3
:104CD000F5D42078AF4F80074FF0000849D5AC4895
:104CE0000830016811F00C0F09D00068C0F3810092
:104CF000022814D1A648001D006840020FD428687D
:104D0000800704D5E068012801D0012097E72868D2
:104D1000216920F0F80040EAC100286029E0E0683D
:104D2000B8B101203860FEF709FE064606E0FEF73E
:104D300005FE801B022801D9032080E72868800730
:104D4000F5D52868216920F0F80040EAC100286004
:104D50000FE0C7F80080FEF7F1FD064606E0FEF71B
:104D6000EDFD801B022801D9032068E72868800731
:104D7000F5D42078000729D5DFF8149286486169B8
:104D800009F1740989B101210160FEF7D7FD0646DA
:104D900006E0FEF7D3FD801B022801D903204EE771
:104DA000D9F800008007F4D510E0C0F80080FEF7C5
:104DB000C5FD064606E0FEF7C1FD801B022801D9AD
:104DC00003203CE7D9F800008007F4D4207840079E
:104DD00072D50026DFF8B8A10AF1400ADAF800001F
:104DE000C0000BD4DAF8000040F08050CAF8000090
:104DF000DAF8000000F0805000900126DFF89CB146
:104E0000DBF80000C00515D4DBF8000040F480702A
:104E1000CBF80000FEF792FD814607E0FEF78EFD1D
:104E2000A0EB0900022801D9032008E7DBF8000005
:104E3000C005F3D5DFF858B1A0680BF1700B01285D
:104E400013D0052818D0DBF8000020F00100CBF8C3
:104E50000000DBF8000020F00400CBF80000A068A0
:104E600030B3FEF76BFD81461DE0DBF8000040F03B
:104E70000100CBF80000F2E7DBF8000040F004008E
:104E8000CBF80000DBF8000040F00100CBF8000098
:104E9000E5E7FEF753FDA0EB090141F288308142BE
:104EA00001D90320CBE6DBF800008007F1D512E042
:104EB000FEF744FD81460AE015E0FEF73FFDA0EB5A
:104EC000090141F28830814201D90320B7E6DBF8BD
:104ED00000008007F1D4012E05D1DAF8000020F09F
:104EE0008050CAF80000A069C0B329490831096898
:104EF000C1F38101022949D0022805D0C7F860809A
:104F0000FEF71CFD04463CE0C7F86080FEF716FD86
:104F1000064606E0FEF712FD801B022801D9032099
:104F20008DE628688001F5D4D4E907010843616A59
:104F3000A26A4FF0FF33890103EB520241EA0241BA
:104F4000084394F82C1040EA01611148001D0160EB
:104F500001203866FEF7F2FC044607E014E0FEF795
:104F6000EDFC001B022801D9032068E628688001B7
:104F7000F5D509E0FEF7E2FC001B022801D9032069
:104F80005DE628688001F5D4002058E6012056E649
:104F90000038024000004742800E47420070004047
:104FA0004FF0E021042804D0086920F004000861D3
:104FB0007047086940F0040008617047704710B5F9
:104FC000401EB0F1807F01D3012010BD4FF0E024DE
:104FD00060610F21601701F0FFF80020A061072039
:104FE0002061002010BD10B5FFF7E8FF10BD70472D
:104FF000704710B590F83820012A25D0012280F89A
:105000003820CA6800238C6822F4407222434C681E
:1050100022F4806222430C6822F4006222430C696D
:1050200022F4805222434C6922F4005222438969BF
:1050300022F480420A4322F400420A4301684A648F
:1050400080F83830002010BD022010BD30B590F837
:105050003820012A20D0012380F83830022280F83D
:1050600039200268546824F070045460026854685F
:105070000D682C4354600268946824F080049460A6
:105080000268946849680C43946080F839300021C4
:1050900080F83810002030BD022030BD10B5044625
:1050A000002C03D094F8390010B107E0012010BDA6
:1050B000002084F83800204600F00CF8022084F824
:1050C0003900211D206801F011FC012084F839000D
:1050D000002010BD08B500680B49884212D10B486A
:1050E000016841F010010160006800F010000090BC
:1050F000002201213620FEF7B1FFBDE8084036202E
:10510000FEF7A0BF08BD000000100040403802407C
:105110000168CA6842F00102CA600068016841F093
:105120000101016000207047704770B50446206897
:1051300001694FF00005C943890716D4C168C94306
:10514000890712D4E91E0161012020762068806958
:10515000800703D02046FFF7E7FF05E0204600F078
:10516000C9F8204600F074F9257620680169C94322
:10517000490718D4C168C943490714D46FF0040122
:105180000161022020762068806910F4407F03D0FE
:105190002046FFF7C9FF05E0204600F0ABF82046A7
:1051A00000F056F9257620680169C943090717D42C
:1051B000C168C943090713D46FF0080101610420D5
:1051C00020762068C069800703D02046FFF7ACFF37
:1051D00005E0204600F08EF8204600F039F92576EB
:1051E00020680169C943C90618D4C168C943C90602
:1051F00014D46FF010010161082020762068C06986
:1052000010F4407F03D02046FFF78EFF05E02046D4
:1052100000F070F8204600F01BF92576206801693F
:10522000C943C90708D1C168C943C90704D1891E48
:105230000161204600F02AF920680169C943090686
:1052400009D4C168C943090605D46FF08001016122
:105250002046FFF7CCFE20680169C943490609D4FE
:10526000C168C943490605D46FF040010161204679
:1052700000F01AF920680169C94389060BD4C16896
:10528000C943890607D46FF0200101612046BDE8BB
:105290007040FFF7ADBE70BD00B585B00068114B22
:1052A0000021022298420CD14FF4704000900192EC
:1052B00002910391049269460B48FEF75DFA05B02E
:1052C00000BD0A4B9842FAD14FF4707000900192E1
:1052D000029103910320049069460548FEF74CFAB9
:1052E000EDE7000000080040000C0240000401400F
:1052F00000080240704770B504460D4694F8380027
:1053000001280DD0012684F83860022084F8390085
:1053100042B1042A1AD0082A2DD00C2A53D13EE0DB
:10532000022070BD2946206801F04EFB206881698B
:1053300041F0080181612068816921F004018161E7
:10534000206881692A69114381613CE0294620680F
:1053500001F06AFB2068816941F400618161206885
:10536000816921F480618161206881692A6941EA4B
:105370000221816127E02946206801F08BFB20682B
:10538000C16941F00801C1612068C16921F00401CF
:10539000C1612068C1692A691143C16113E02946CE
:1053A000206801F0ABFB2068C16941F40061C16174
:1053B0002068C16921F48061C1612068C1692A69DE
:1053C00041EA0221C161383466700020207070BD4E
:1053D00010B50446002C03D094F8390010B107E052
:1053E000012010BD002084F83800204600F00CF8A1
:1053F000022084F83900211D206801F077FA01208D
:1054000084F83900002010BD08B500680D498842B5
:1054100009D10D48016841F004010160006800F005
:105420000400009008BD09498842FBD10648001DD0
:10543000016841F002010160006800F00200009084
:1054400008BD000000080040403802400004014050
:105450007047000010B504460122206801F0A8FA48
:1054600008482168814202D00748814203D1486C34
:1054700040F4004048642068016841F00101016087
:10548000002010BD000001400004014010B5054996
:10549000884205D1FEF7DCF8BDE8104000F008BDF9
:1054A00010BD0000E80300207047704770B5044647
:1054B00022681068D168526900F00F03002B08D1F0
:1054C000850606D58D0604D52046BDE8704001F05E
:1054D000D2BC002B5ED002F0010301F490752B4387
:1054E00058D0C30705D0CB0503D5E36B43F00103C8
:1054F000E363430705D5D30703D0E36B43F002030F
:10550000E363830705D5D30703D0E36B43F00403BC
:10551000E363030705D5D20703D0E26B42F008022C
:10552000E263E26B002A2AD0800604D5880602D501
:10553000204601F0A0FC20684069C0F38010E16BB8
:10554000090700D400B3204601F07AFC20684169C5
:10555000490615D5416921F040014161606B58B1A0
:1055600015490165606BFEF7E2F8002807D0606B13
:10557000016DBDE8704008472046FFF796FF70BDFB
:105580002046FFF792FF70BD2046FFF78EFF0020F8
:10559000E06370BD020606D50A0604D52046BDE8C4
:1055A000704001F03BBE4006F3D54806F1D52046D9
:1055B000BDE8704001F052BC316E000800B587B004
:1055C0000068124988421ED100211148026842F445
:1055D00000320260006800F4003001900C2002905C
:1055E000022003900491032005900720069002A951
:1055F0000848FEF7C1F8002211462620FEF72EFDCE
:105600002620FEF71FFD07B000BD0000004400404B
:10561000403802400000024090F83A30202B01D080
:1056200002207047D1B1CAB190F83830012B17D0A1
:1056300081628285C2850021C163222280F83A20DE
:1056400080F8381001684A6942F001024A61006836
:10565000C16841F49071C16000207047012070471B
:105660000220704710B50068074988420AD10748F0
:10567000007800F00DFEBDE8104001220349044807
:10568000FFF7CABF10BD0000004400409C0000208E
:10569000600400207047FEE701684A69D243520562
:1056A0000CD46FF480624A61042130300161002122
:1056B000016020224273017301207047002070476F
:1056C0002DE9F84F0446DDE90AB60F4690461D461F
:1056D0002068016841F4806101602068016841F43C
:1056E000807101604FF001195B4600224946204657
:1056F000009600F011F910B10320BDE8F88F216881
:1057000007F0FE000861DFF8F8A033465A4651461C
:10571000204600F03BF930B1206C042801D0032072
:10572000EBE70120E9E72068416980690090324693
:105730005946204600F0A5F958B1206C042801D044
:105740000320DAE72068016841F40071016001205C
:10575000D3E7284608F0FF0501280ED021684FEA5C
:105760001820086132465946204600F08AF970B187
:10577000206C042804D00320BFE72068056108E0FE
:105780002068016841F4007101600120B5E72068DC
:10579000056132465946204600F073F958B1206C35
:1057A000042801D00320A8E72068016841F40071B3
:1057B00001600120A1E72068016841F48071016067
:1057C0005B46002249462046009600F0A5F808B145
:1057D000032092E72168F8B240F0010008613346E7
:1057E0005A465146204600F0D1F830B1206C0428CA
:1057F00001D0032081E701207FE700207DE7000042
:10580000020001002DE9F8430446DDE908970D4642
:10581000164698462068016841F4807101604B4645
:1058200000224FF001112046009700F075F810B1EA
:105830000320BDE8F883216805F0FE0008613B46BF
:105840004A462149204600F0A1F830B1206C0428D6
:1058500001D00320EDE70120EBE720684169806972
:1058600000903A464946204600F00BF958B1206CAA
:10587000042801D00320DCE72068016841F40071AE
:1058800001600120D5E7F5B2B8F1010F0DD0216814
:10589000300A08613A464946204600F0F2F870B1F5
:1058A000206C042804D00320C3E72068056108E0C9
:1058B0002068016841F4007101600120B9E72068A7
:1058C00005610020B5E700000200010070B5044644
:1058D0000D46164619E02046FFF7DEFE08B101200E
:1058E00070BD681C11D025B1FEF728F8801BA842B6
:1058F0000BD93034206940F0200020610020206066
:10590000202161732073032070BD20684069C0436B
:105910004007E0D4002070BD2DE9F0470546DDF8D2
:1059200020A00F4691461E46C7F3074812E0701CA0
:1059300010D02EB1FEF702F8A0EB0A00B04209D950
:10594000002045F8300F20216973A87328730320C5
:10595000BDE8F087B8F1010F0BD02868806927EA0D
:1059600000000004000C0FD000244C45DFD00020C4
:10597000EEE72868406927EA00000004000C01D027
:105980000024F2E70124F0E70124EEE72DE9F047D7
:1059900004460E46154698464FF000094FF0200A7F
:1059A000C6F3074729E020684069C043400513D487
:1059B0002068016841F40071016021686FF4806023
:1059C000486104202064C4F8309084F83DA084F835
:1059D0003C900120BDE8F087681C0ED02DB1FDF78A
:1059E000ADFFA0EB0800A84207D9C4F8309084F8B6
:1059F0003DA084F83C900320ECE7012F08D02068FC
:105A0000806926EA00000004000CCCD10020E1E708
:105A10002068406926EA00000004000CF6D0C2E7C6
:105A20002DE9F04104460D46164600274FF02008A8
:105A300020E04069C043C0060CD421686FF010001C
:105A400048612764276384F83D8084F83C70012016
:105A5000BDE8F08125B1FDF771FF801BA84209D98F
:105A6000206C40F02000206484F83D8084F83C7075
:105A70000320EDE720684169C9434906D9D40020D5
:105A8000E6E770B504460D46164619E02046FFF7D6
:105A900003FE08B1012070BD681C11D025B1FDF7CF
:105AA0004DFF801BA8420BD93034206940F0200004
:105AB000206100202060202161732073032070BDCD
:105AC00020684069C0430006E0D4002070BD00009B
:105AD00010B500F057FE20480221016000F11401CA
